{
    "_format": "hh-sol-artifact-1",
    "contractName": "BookContract",
    "sourceName": "contracts/BookContract.sol",
    "abi": [
        {
            "inputs": [],
            "stateMutability": "nonpayable",
            "type": "constructor"
        },
        {
            "anonymous": false,
            "inputs": [
                {
                    "indexed": false,
                    "internalType": "address",
                    "name": "publicKey",
                    "type": "address"
                },
                {
                    "indexed": false,
                    "internalType": "string",
                    "name": "CID",
                    "type": "string"
                }
            ],
            "name": "addCID",
            "type": "event"
        },
        {
            "inputs": [
                {
                    "internalType": "address",
                    "name": "publicKey",
                    "type": "address"
                },
                {
                    "internalType": "string",
                    "name": "CID",
                    "type": "string"
                }
            ],
            "name": "deleteCID",
            "outputs": [],
            "stateMutability": "nonpayable",
            "type": "function"
        },
        {
            "inputs": [
                {
                    "internalType": "address",
                    "name": "publicKey",
                    "type": "address"
                }
            ],
            "name": "getCID",
            "outputs": [
                {
                    "internalType": "string[]",
                    "name": "",
                    "type": "string[]"
                }
            ],
            "stateMutability": "view",
            "type": "function"
        },
        {
            "inputs": [
                {
                    "internalType": "address",
                    "name": "publicKey",
                    "type": "address"
                },
                {
                    "internalType": "string",
                    "name": "CID",
                    "type": "string"
                }
            ],
            "name": "storeCID",
            "outputs": [],
            "stateMutability": "nonpayable",
            "type": "function"
        }
    ],
    "bytecode": "0x608060405234801561001057600080fd5b50336000806101000a81548173ffffffffffffffffffffffffffffffffffffffff021916908373ffffffffffffffffffffffffffffffffffffffff160217905550610d08806100606000396000f3fe608060405234801561001057600080fd5b50600436106100415760003560e01c80630409350814610046578063055b33e714610062578063b7607a7b14610092575b600080fd5b610060600480360381019061005b9190610826565b6100ae565b005b61007c600480360381019061007791906107fd565b6103f3565b60405161008991906109fc565b60405180910390f35b6100ac60048036038101906100a79190610826565b610563565b005b6000600160008473ffffffffffffffffffffffffffffffffffffffff1673ffffffffffffffffffffffffffffffffffffffff168152602001908152602001600020805480602002602001604051908101604052809291908181526020016000905b828210156101bb57838290600052602060002001805461012e90610ba2565b80601f016020809104026020016040519081016040528092919081815260200182805461015a90610ba2565b80156101a75780601f1061017c576101008083540402835291602001916101a7565b820191906000526020600020905b81548152906001019060200180831161018a57829003601f168201915b50505050508152602001906001019061010f565b5050505090506000815190506000600183516101d79190610af0565b67ffffffffffffffff811115610216577f4e487b7100000000000000000000000000000000000000000000000000000000600052604160045260246000fd5b60405190808252806020026020018201604052801561024957816020015b60608152602001906001900390816102345790505b5090506000805b8381101561039657848181518110610291577f4e487b7100000000000000000000000000000000000000000000000000000000600052603260045260246000fd5b60200260200101516040516020016102a991906109b5565b60405160208183030381529060405280519060200120866040516020016102d091906109b5565b6040516020818303038152906040528051906020012014156102f157610385565b84818151811061032a577f4e487b7100000000000000000000000000000000000000000000000000000000600052603260045260246000fd5b602002602001015183838151811061036b577f4e487b7100000000000000000000000000000000000000000000000000000000600052603260045260246000fd5b6020026020010181905250818061038190610bd4565b9250505b8061038f90610bd4565b9050610250565b5081600160008873ffffffffffffffffffffffffffffffffffffffff1673ffffffffffffffffffffffffffffffffffffffff16815260200190815260200160002090805190602001906103ea929190610619565b50505050505050565b606060008054906101000a900473ffffffffffffffffffffffffffffffffffffffff1673ffffffffffffffffffffffffffffffffffffffff163373ffffffffffffffffffffffffffffffffffffffff161461044d57600080fd5b600160008373ffffffffffffffffffffffffffffffffffffffff1673ffffffffffffffffffffffffffffffffffffffff168152602001908152602001600020805480602002602001604051908101604052809291908181526020016000905b828210156105585783829060005260206000200180546104cb90610ba2565b80601f01602080910402602001604051908101604052809291908181526020018280546104f790610ba2565b80156105445780601f1061051957610100808354040283529160200191610544565b820191906000526020600020905b81548152906001019060200180831161052757829003601f168201915b5050505050815260200190600101906104ac565b505050509050919050565b600160008373ffffffffffffffffffffffffffffffffffffffff1673ffffffffffffffffffffffffffffffffffffffff168152602001908152602001600020819080600181540180825580915050600190039060005260206000200160009091909190915090805190602001906105db929190610679565b507f4f116a6995a48fd58e7336234a7c870c21f95c3172cc782155f5aaa5f1af8d8c828260405161060d9291906109cc565b60405180910390a15050565b828054828255906000526020600020908101928215610668579160200282015b82811115610667578251829080519060200190610657929190610679565b5091602001919060010190610639565b5b50905061067591906106ff565b5090565b82805461068590610ba2565b90600052602060002090601f0160209004810192826106a757600085556106ee565b82601f106106c057805160ff19168380011785556106ee565b828001600101855582156106ee579182015b828111156106ed5782518255916020019190600101906106d2565b5b5090506106fb9190610723565b5090565b5b8082111561071f57600081816107169190610740565b50600101610700565b5090565b5b8082111561073c576000816000905550600101610724565b5090565b50805461074c90610ba2565b6000825580601f1061075e575061077d565b601f01602090049060005260206000209081019061077c9190610723565b5b50565b600061079361078e84610a4f565b610a1e565b9050828152602081018484840111156107ab57600080fd5b6107b6848285610b60565b509392505050565b6000813590506107cd81610cbb565b92915050565b600082601f8301126107e457600080fd5b81356107f4848260208601610780565b91505092915050565b60006020828403121561080f57600080fd5b600061081d848285016107be565b91505092915050565b6000806040838503121561083957600080fd5b6000610847858286016107be565b925050602083013567ffffffffffffffff81111561086457600080fd5b610870858286016107d3565b9150509250929050565b60006108868383610912565b905092915050565b61089781610b24565b82525050565b60006108a882610a8f565b6108b28185610ab2565b9350836020820285016108c485610a7f565b8060005b8581101561090057848403895281516108e1858261087a565b94506108ec83610aa5565b925060208a019950506001810190506108c8565b50829750879550505050505092915050565b600061091d82610a9a565b6109278185610ac3565b9350610937818560208601610b6f565b61094081610caa565b840191505092915050565b600061095682610a9a565b6109608185610ad4565b9350610970818560208601610b6f565b61097981610caa565b840191505092915050565b600061098f82610a9a565b6109998185610ae5565b93506109a9818560208601610b6f565b80840191505092915050565b60006109c18284610984565b915081905092915050565b60006040820190506109e1600083018561088e565b81810360208301526109f3818461094b565b90509392505050565b60006020820190508181036000830152610a16818461089d565b905092915050565b6000604051905081810181811067ffffffffffffffff82111715610a4557610a44610c7b565b5b8060405250919050565b600067ffffffffffffffff821115610a6a57610a69610c7b565b5b601f19601f8301169050602081019050919050565b6000819050602082019050919050565b600081519050919050565b600081519050919050565b6000602082019050919050565b600082825260208201905092915050565b600082825260208201905092915050565b600082825260208201905092915050565b600081905092915050565b6000610afb82610b56565b9150610b0683610b56565b925082821015610b1957610b18610c1d565b5b828203905092915050565b6000610b2f82610b36565b9050919050565b600073ffffffffffffffffffffffffffffffffffffffff82169050919050565b6000819050919050565b82818337600083830152505050565b60005b83811015610b8d578082015181840152602081019050610b72565b83811115610b9c576000848401525b50505050565b60006002820490506001821680610bba57607f821691505b60208210811415610bce57610bcd610c4c565b5b50919050565b6000610bdf82610b56565b91507fffffffffffffffffffffffffffffffffffffffffffffffffffffffffffffffff821415610c1257610c11610c1d565b5b600182019050919050565b7f4e487b7100000000000000000000000000000000000000000000000000000000600052601160045260246000fd5b7f4e487b7100000000000000000000000000000000000000000000000000000000600052602260045260246000fd5b7f4e487b7100000000000000000000000000000000000000000000000000000000600052604160045260246000fd5b6000601f19601f8301169050919050565b610cc481610b24565b8114610ccf57600080fd5b5056fea26469706673582212204df499f8de01ef07f01a0391e1235e1c4f7bb5d888668b5d684c878f3a20904d64736f6c63430008000033",
    "linkReferences": {},
    "deployedLinkReferences": {}
}