{
  "_format": "hh-sol-artifact-1",
  "contractName": "BookContract",
  "sourceName": "contracts/BookContract.sol",
  "abi": [
    {
      "inputs": [],
      "stateMutability": "nonpayable",
      "type": "constructor"
    },
    {
      "anonymous": false,
      "inputs": [
        {
          "indexed": false,
          "internalType": "address",
          "name": "publicKey",
          "type": "address"
        },
        {
          "indexed": false,
          "internalType": "string",
          "name": "CID",
          "type": "string"
        }
      ],
      "name": "addCID",
      "type": "event"
    },
    {
      "inputs": [
        {
          "internalType": "address",
          "name": "publicKey",
          "type": "address"
        },
        {
          "internalType": "string",
          "name": "CID",
          "type": "string"
        }
      ],
      "name": "deleteCID",
      "outputs": [],
      "stateMutability": "nonpayable",
      "type": "function"
    },
    {
      "inputs": [
        {
          "internalType": "address",
          "name": "publicKey",
          "type": "address"
        }
      ],
      "name": "getCID",
      "outputs": [
        {
          "internalType": "string[]",
          "name": "",
          "type": "string[]"
        }
      ],
      "stateMutability": "view",
      "type": "function"
    },
    {
      "inputs": [
        {
          "internalType": "address",
          "name": "publicKey",
          "type": "address"
        },
        {
          "internalType": "string",
          "name": "CID",
          "type": "string"
        }
      ],
      "name": "storeCID",
      "outputs": [],
      "stateMutability": "nonpayable",
      "type": "function"
    }
  ],
  "bytecode": "0x608060405234801561001057600080fd5b50336000806101000a81548173ffffffffffffffffffffffffffffffffffffffff021916908373ffffffffffffffffffffffffffffffffffffffff160217905550610ced806100606000396000f3fe608060405234801561001057600080fd5b50600436106100415760003560e01c80630409350814610046578063055b33e714610062578063b7607a7b14610092575b600080fd5b610060600480360381019061005b91906108a0565b6100ae565b005b61007c600480360381019061007791906108fc565b61035b565b6040516100899190610a73565b60405180910390f35b6100ac60048036038101906100a791906108a0565b6104cb565b005b6000600160008473ffffffffffffffffffffffffffffffffffffffff1673ffffffffffffffffffffffffffffffffffffffff168152602001908152602001600020805480602002602001604051908101604052809291908181526020016000905b828210156101bb57838290600052602060002001805461012e90610ac4565b80601f016020809104026020016040519081016040528092919081815260200182805461015a90610ac4565b80156101a75780601f1061017c576101008083540402835291602001916101a7565b820191906000526020600020905b81548152906001019060200180831161018a57829003601f168201915b50505050508152602001906001019061010f565b5050505090506000815190506000600183516101d79190610b2f565b67ffffffffffffffff8111156101f0576101ef610775565b5b60405190808252806020026020018201604052801561022357816020015b606081526020019060019003908161020e5790505b5090506000805b838110156102fe5784818151811061024557610244610b63565b5b602002602001015160405160200161025d9190610bce565b60405160208183030381529060405280519060200120866040516020016102849190610bce565b6040516020818303038152906040528051906020012014156102a5576102ed565b8481815181106102b8576102b7610b63565b5b60200260200101518383815181106102d3576102d2610b63565b5b602002602001018190525081806102e990610be5565b9250505b806102f790610be5565b905061022a565b5081600160008873ffffffffffffffffffffffffffffffffffffffff1673ffffffffffffffffffffffffffffffffffffffff1681526020019081526020016000209080519060200190610352929190610581565b50505050505050565b606060008054906101000a900473ffffffffffffffffffffffffffffffffffffffff1673ffffffffffffffffffffffffffffffffffffffff163373ffffffffffffffffffffffffffffffffffffffff16146103b557600080fd5b600160008373ffffffffffffffffffffffffffffffffffffffff1673ffffffffffffffffffffffffffffffffffffffff168152602001908152602001600020805480602002602001604051908101604052809291908181526020016000905b828210156104c057838290600052602060002001805461043390610ac4565b80601f016020809104026020016040519081016040528092919081815260200182805461045f90610ac4565b80156104ac5780601f10610481576101008083540402835291602001916104ac565b820191906000526020600020905b81548152906001019060200180831161048f57829003601f168201915b505050505081526020019060010190610414565b505050509050919050565b600160008373ffffffffffffffffffffffffffffffffffffffff1673ffffffffffffffffffffffffffffffffffffffff168152602001908152602001600020819080600181540180825580915050600190039060005260206000200160009091909190915090805190602001906105439291906105e1565b507f4f116a6995a48fd58e7336234a7c870c21f95c3172cc782155f5aaa5f1af8d8c8282604051610575929190610c87565b60405180910390a15050565b8280548282559060005260206000209081019282156105d0579160200282015b828111156105cf5782518290805190602001906105bf9291906105e1565b50916020019190600101906105a1565b5b5090506105dd9190610667565b5090565b8280546105ed90610ac4565b90600052602060002090601f01602090048101928261060f5760008555610656565b82601f1061062857805160ff1916838001178555610656565b82800160010185558215610656579182015b8281111561065557825182559160200191906001019061063a565b5b509050610663919061068b565b5090565b5b80821115610687576000818161067e91906106a8565b50600101610668565b5090565b5b808211156106a457600081600090555060010161068c565b5090565b5080546106b490610ac4565b6000825580601f106106c657506106e5565b601f0160209004906000526020600020908101906106e4919061068b565b5b50565b6000604051905090565b600080fd5b600080fd5b600073ffffffffffffffffffffffffffffffffffffffff82169050919050565b6000610727826106fc565b9050919050565b6107378161071c565b811461074257600080fd5b50565b6000813590506107548161072e565b92915050565b600080fd5b600080fd5b6000601f19601f8301169050919050565b7f4e487b7100000000000000000000000000000000000000000000000000000000600052604160045260246000fd5b6107ad82610764565b810181811067ffffffffffffffff821117156107cc576107cb610775565b5b80604052505050565b60006107df6106e8565b90506107eb82826107a4565b919050565b600067ffffffffffffffff82111561080b5761080a610775565b5b61081482610764565b9050602081019050919050565b82818337600083830152505050565b600061084361083e846107f0565b6107d5565b90508281526020810184848401111561085f5761085e61075f565b5b61086a848285610821565b509392505050565b600082601f8301126108875761088661075a565b5b8135610897848260208601610830565b91505092915050565b600080604083850312156108b7576108b66106f2565b5b60006108c585828601610745565b925050602083013567ffffffffffffffff8111156108e6576108e56106f7565b5b6108f285828601610872565b9150509250929050565b600060208284031215610912576109116106f2565b5b600061092084828501610745565b91505092915050565b600081519050919050565b600082825260208201905092915050565b6000819050602082019050919050565b600081519050919050565b600082825260208201905092915050565b60005b8381101561098f578082015181840152602081019050610974565b8381111561099e576000848401525b50505050565b60006109af82610955565b6109b98185610960565b93506109c9818560208601610971565b6109d281610764565b840191505092915050565b60006109e983836109a4565b905092915050565b6000602082019050919050565b6000610a0982610929565b610a138185610934565b935083602082028501610a2585610945565b8060005b85811015610a615784840389528151610a4285826109dd565b9450610a4d836109f1565b925060208a01995050600181019050610a29565b50829750879550505050505092915050565b60006020820190508181036000830152610a8d81846109fe565b905092915050565b7f4e487b7100000000000000000000000000000000000000000000000000000000600052602260045260246000fd5b60006002820490506001821680610adc57607f821691505b60208210811415610af057610aef610a95565b5b50919050565b6000819050919050565b7f4e487b7100000000000000000000000000000000000000000000000000000000600052601160045260246000fd5b6000610b3a82610af6565b9150610b4583610af6565b925082821015610b5857610b57610b00565b5b828203905092915050565b7f4e487b7100000000000000000000000000000000000000000000000000000000600052603260045260246000fd5b600081905092915050565b6000610ba882610955565b610bb28185610b92565b9350610bc2818560208601610971565b80840191505092915050565b6000610bda8284610b9d565b915081905092915050565b6000610bf082610af6565b91507fffffffffffffffffffffffffffffffffffffffffffffffffffffffffffffffff821415610c2357610c22610b00565b5b600182019050919050565b610c378161071c565b82525050565b600082825260208201905092915050565b6000610c5982610955565b610c638185610c3d565b9350610c73818560208601610971565b610c7c81610764565b840191505092915050565b6000604082019050610c9c6000830185610c2e565b8181036020830152610cae8184610c4e565b9050939250505056fea2646970667358221220364974de3c7ba437852dad2fec5aa655ab285cb400d73b26e6598ba7bb5235b064736f6c63430008090033",
  "linkReferences": {},
  "deployedLinkReferences": {}
}