{
    "_format": "hh-sol-artifact-1",
    "contractName": "TokenContract",
    "sourceName": "contracts/TokenContract.sol",
    "abi": [
        {
            "inputs": [],
            "stateMutability": "nonpayable",
            "type": "constructor"
        },
        {
            "inputs": [],
            "name": "buyTokens",
            "outputs": [],
            "stateMutability": "payable",
            "type": "function"
        },
        {
            "inputs": [],
            "name": "getAmount",
            "outputs": [
                {
                    "internalType": "uint256",
                    "name": "",
                    "type": "uint256"
                }
            ],
            "stateMutability": "view",
            "type": "function"
        },
        {
            "inputs": [
                {
                    "internalType": "address payable",
                    "name": "author",
                    "type": "address"
                }
            ],
            "name": "sendPaymentToAuthor",
            "outputs": [],
            "stateMutability": "payable",
            "type": "function"
        }
    ],
    "bytecode": "0x608060405234801561001057600080fd5b50336000806101000a81548173ffffffffffffffffffffffffffffffffffffffff021916908373ffffffffffffffffffffffffffffffffffffffff160217905550610515806100606000396000f3fe6080604052600436106100345760003560e01c8063aeecc2d014610039578063d0febe4c14610055578063d321fe291461005f575b600080fd5b610053600480360381019061004e9190610395565b61008a565b005b61005d6101c6565b005b34801561006b57600080fd5b50610074610328565b60405161008191906103db565b60405180910390f35b600160003373ffffffffffffffffffffffffffffffffffffffff1673ffffffffffffffffffffffffffffffffffffffff1681526020019081526020016000205434101561010c576040517f08c379a000000000000000000000000000000000000000000000000000000000815260040161010390610453565b60405180910390fd5b600073ffffffffffffffffffffffffffffffffffffffff163373ffffffffffffffffffffffffffffffffffffffff16141561017c576040517f08c379a0000000000000000000000000000000000000000000000000000000008152600401610173906104bf565b60405180910390fd5b8073ffffffffffffffffffffffffffffffffffffffff166108fc349081150290604051600060405180830381858888f193505050501580156101c2573d6000803e3d6000fd5b5050565b600160003373ffffffffffffffffffffffffffffffffffffffff1673ffffffffffffffffffffffffffffffffffffffff16815260200190815260200160002054341015610248576040517f08c379a000000000000000000000000000000000000000000000000000000000815260040161023f90610453565b60405180910390fd5b600073ffffffffffffffffffffffffffffffffffffffff163373ffffffffffffffffffffffffffffffffffffffff1614156102b8576040517f08c379a00000000000000000000000000000000000000000000000000000000081526004016102af906104bf565b60405180910390fd5b60008054906101000a900473ffffffffffffffffffffffffffffffffffffffff1673ffffffffffffffffffffffffffffffffffffffff166108fc349081150290604051600060405180830381858888f1935050505015801561031e573d6000803e3d6000fd5b5034600281905550565b6000600254905090565b600080fd5b600073ffffffffffffffffffffffffffffffffffffffff82169050919050565b600061036282610337565b9050919050565b61037281610357565b811461037d57600080fd5b50565b60008135905061038f81610369565b92915050565b6000602082840312156103ab576103aa610332565b5b60006103b984828501610380565b91505092915050565b6000819050919050565b6103d5816103c2565b82525050565b60006020820190506103f060008301846103cc565b92915050565b600082825260208201905092915050565b7f4e6f7420656e6f756768204574686572204f776e65722057616c6c6574000000600082015250565b600061043d601d836103f6565b915061044882610407565b602082019050919050565b6000602082019050818103600083015261046c81610430565b9050919050565b7f6572726f72206f63637572656400000000000000000000000000000000000000600082015250565b60006104a9600d836103f6565b91506104b482610473565b602082019050919050565b600060208201905081810360008301526104d88161049c565b905091905056fea26469706673582212204214e787a6f92e7576ab38f42b4a5751d6d4277b0f2c7a05b8896a02d55a2edb64736f6c63430008090033",
    "linkReferences": {},
    "deployedLinkReferences": {}
}